:100000000C942A000C9447000C9447000C94470071
:100010000C9447000C9447000C9447000C94470044
:100020000C9447000C9447000C9447000C94470034
:100030000C9447000C9447000C9447000C94470024
:100040000C9447000C9447000C9447000C94470014
:100050000C94470011241FBECFE5D8E0DEBFCDBF12
:1000600010E0A0E6B0E0EAE9F5E002C005900D92EC
:10007000A43DB107D9F710E0A4EDB0E001C01D9296
:10008000AB3DB107E1F70E9447020C94CB020C9400
:10009000000082E08BB988E98AB986E880BD88E0F3
:1000A00089B910BC08955D9BFECF8CB908955F9B04
:1000B000FECF8CB10895CF93DF93EC018991882313
:1000C00019F00E945300FACFDF91CF910895CF939A
:1000D000DF93CDB7DEB764970FB6F894DEBF0FBEDF
:1000E000CDBF4AE050E0BE016F5F7F4F0E948602A5
:1000F000CE0101960E945B0064960FB6F894DEBFB5
:100100000FBECDBFDF91CF91089580EB87BBBE9826
:1001100080E58DB9689AC49808958FB9779BFECF12
:100120008FB1089580E487BB8DB90895C49A08956E
:100130000E948500BB9ABC9AC3980C9496008111CA
:100140000C949600C49808951F93CF93DF931F9249
:10015000CDB7DEB7182F80E069830E949F00812F02
:100160008F7180620E948D006981862F0E948D00B0
:100170000F90DF91CF911F910C949600882311F07E
:10018000C39A0895C398089580E00E949F0082EE6C
:100190000E948D000E94960060E787E00E94A40004
:1001A00080E00E94BE006BE080E00E94A400C39A41
:1001B00008956093D500682F85E00E94A40060E058
:1001C00081E10E94A4006091D50082E10E94A40018
:1001D00060E083E10E94A40060E084E10E94A4004A
:1001E00060E085E10E94A40060E086E10E94A40036
:1001F00066E086E00E94A40068E080E00E94A4001F
:1002000063E081E00E94A40063E082E00E94A40019
:100210006FE484E00E94A40060E08CE10E94A400EE
:100220000C94C400EF92FF921F93CF93DF931F9221
:10023000CDB7DEB7182F7C018E2D811B861740F4B9
:10024000F70181917F0169830E948D006981F4CF5C
:100250000F90DF91CF911F91FF90EF900895EF9253
:10026000FF921F93CF93DF931F92CDB7DEB7182F66
:100270007B0180E049830E949F00812F8F71806203
:100280000E948D004981642FC7010E9412010F90C6
:10029000DF91CF911F91FF90EF900C949600CF9338
:1002A000DF93EC0145E0BC018AE00E942F0145E0AC
:1002B000BE0180E1DF91CF910C942F01CF92DF92AC
:1002C000FF920F931F93CF93DF931F92CDB7DEB7AB
:1002D000F82E8B016C018C2D8F19841758F4F601C0
:1002E00081916F0149830E948D00F80181938F01F4
:1002F0004981F1CF0F90DF91CF911F910F91FF9026
:10030000DF90CF90089545E0BC018BE00C942F0165
:1003100060E787E00E94A4006AE080E00C94A400FB
:10032000CF93DF93EC0180E00E94BE000E94880121
:1003300080E00E949F0081EE0E948D000E94960046
:1003400080E00E949F0080EA0E948D006091D500AD
:10035000CE010E9412010E949600C39ADF91CF91B4
:100360000895CF93DF931F92CDB7DEB780E00E9450
:100370009F008FEF0E948D0089830E9496008981E3
:100380000F90DF91CF9108950E94B101982F907343
:1003900081E009F080E008950E94B10185FD04C06C
:1003A00084FF04C081E0089580E008958FEF0895F0
:1003B000EF92FF921F93CF93DF931F92CDB7DEB7DB
:1003C000182F7B0180E049830E949F00812F8F714D
:1003D0000E948D004981B701C7010E945E010F9004
:1003E000DF91CF911F91FF90EF900C949600CF93E7
:1003F000DF931F92CDB7DEB741E0BE016F5F7F4F45
:1004000088E00E94D80189818F700F90DF91CF9191
:10041000089580E00E94BE0068E080E00C94A40093
:10042000CF93DF93EC0180E00E949F0081E60E9461
:100430008D004091D500BE01CE010E945E010E9458
:10044000960060E487E0DF91CF910C94A400CF93F5
:10045000DF931F92CDB7DEB741E0BE016F5F7F4FE4
:1004600087E10E94D801898181700F90DF91CF913F
:1004700008950E94B10186FD07C00E94270291E005
:10048000882319F090E001C091E0892F08950E941F
:1004900049008AE690E00E945B000E9498008CE789
:1004A00090E00E945B0064E082E00E94D9008FE847
:1004B00090E00E945B0085E690E00E944F0180E69C
:1004C00090E00E94830186EA90E00E945B000E9417
:1004D00039028823E1F387ED90E00E94100286EB59
:1004E00090E00E945B008091D7000E9453008091B1
:1004F000D8000E9453008091D9000E94530080913F
:10050000DA000E9453008EEC90E0DFCFFB019F01E8
:10051000E8944230C4F04532B4F44A3029F497FBF1
:100520001EF4909581959F4F642F77270E94B70204
:10053000805D8A330CF0895D8193CB010097A1F730
:1005400016F45DE251931082C9010C94A702DC01FC
:10055000FC01672F71917723E1F7329704C07C91FA
:100560006D9370836291AE17BF07C8F30895AA1BFD
:10057000BB1B51E107C0AA1FBB1FA617B70710F08E
:10058000A61BB70B881F991F5A95A9F780959095C0
:0A059000BC01CD010895F894FFCFDF
:10059A00E7E7E7E7E7D7D7D7D7D753797374656D16
:1005AA0020696E6974205258200D0A005350492060
:1005BA00696E697420446F6E652052580D0A006E88
:1005CA007266323420436F6E66696720646F6E65A7
:1005DA002052580D0A0053746172742050726F676A
:1005EA002052580D0A00446174612072656369657E
:1005FA00766564202D2D2D2D2D3E3E2020000D0ADE
:04060A000D0A0000D5
:00000001FF
